:020000040000FA
:100000000C9453000C947B000C947B000C947B00AC
:100010000C947B000C947B000C947B000C947B0074
:100020000C947B000C947B000C947B000C947B0064
:100030000C947B000C947B000C947B000C947B0054
:100040000C943A080C947B000C9408080C94E2077A
:100050000C947B000C947B000C947B000C947B0034
:100060000C947B000C947B00000000002300260011
:10007000290000000000250028002B0004040404CF
:100080000404040402020202020203030303030342
:10009000010204081020408001020408102001021F
:1000A00004081020840811241FBECFEFD8E0DEBF63
:1000B000CDBF11E0A0E0B1E0EEEDF0E202C00590AE
:1000C0000D92AC33B107D9F723E0ACE3B1E001C046
:1000D0001D92AB36B207E1F710E0C3E5D0E004C0F3
:1000E0002197FE010E946210C235D107C9F70E9414
:1000F000C0080C946D100C94000020E0DC0160FF3F
:1001000003C001C02D932D936250E0F77040D0F7EB
:100110000895CF93DF93C091BF02D091C002209782
:1001200089F08A819B81009749F02D853E85B90130
:10013000660F771F620F731F0E947D000C80DD81A8
:10014000C02DEDCFDF91CF910895DC0117962C9152
:10015000179730E0F901E057FF4FE4911696EC93C2
:10016000169724583F4FF9018491E82FF0E0EE0FE5
:10017000FF1FEE58FF4F8591949113969C938E9399
:100180001297F9012491E22FF0E0EE0FFF1FE859DA
:10019000FF4F8591949115969C938E931497089593
:1001A00080E991E00895AF92BF92CF92DF92EF92F3
:1001B000FF920F931F93CF93DF936C017B018B0111
:1001C000040F151FEB015E01AE18BF08C017D10761
:1001D00059F06991D601ED91FC910190F081E02DEB
:1001E000C6010995892B79F7C501DF91CF911F9140
:1001F0000F91FF90EF90DF90CF90BF90AF90089558
:10020000FC01538D448D252F30E0842F90E0821B1C
:10021000930B541710F0CF96089501970895FC01A1
:10022000918D828D981761F0A28DAE0FBF2FB11DF9
:100230005D968C91928D9F5F9F73928F90E0089551
:100240008FEF9FEF0895FC01918D828D981731F00B
:10025000828DE80FF11D858D90E008958FEF9FEF5F
:100260000895FC01918D228D892F90E0805C9F4F35
:10027000821B91098F739927089581EC92E00E9467
:10028000310121E0892B09F420E0822F089580E0DC
:1002900090E0892B29F00E943D0181110C9400000F
:1002A0000895FC01A48DA80FB92FB11DA35ABF4F0B
:1002B0002C91848D90E001968F739927848FA68965
:1002C000B7892C93A089B1898C91837080648C93B9
:1002D000938D848D981306C00288F389E02D808168
:1002E0008F7D80830895EF92FF920F931F93CF939A
:1002F000DF93EC0181E0888F9B8D8C8D98131AC061
:10030000E889F989808185FF15C09FB7F894EE8947
:10031000FF896083E889F9898081837080648083A4
:100320009FBF81E090E0DF91CF911F910F91FF90EF
:10033000EF900895F62E0B8D10E00F5F1F4F0F7397
:100340001127E02E8C8D8E110CC00FB607FCFACF52
:10035000E889F989808185FFF5CFCE010E9451019E
:10036000F1CFEB8DEC0FFD2FF11DE35AFF4FF08223
:100370009FB7F8940B8FEA89FB8980818062CFCF89
:10038000CF93DF93EC01888D8823B9F0AA89BB89CC
:10039000E889F9898C9185FD03C0808186FD0DC0B7
:1003A0000FB607FCF7CF8C9185FFF2CF808185FFD8
:1003B000EDCFCE010E945101E9CFDF91CF91089599
:1003C0003FB7F8948091450190914601A091470173
:1003D000B091480126B5A89B05C02F3F19F00196A2
:1003E000A11DB11D3FBFBA2FA92F982F8827BC018F
:1003F000CD01620F711D811D911D42E0660F771FB7
:10040000881F991F4A95D1F708958F929F92AF92B6
:10041000BF92CF92DF92EF92FF926B017C010E941C
:10042000E0014B015C01C114D104E104F104B9F015
:100430000E94E001681979098A099B09683E7340A6
:100440008105910580F321E0C21AD108E108F10885
:1004500088EE880E83E0981EA11CB11CE4CFFF90AB
:10046000EF90DF90CF90BF90AF909F908F900895C6
:100470002FB7F8946091410170914201809143013E
:10048000909144012FBF08954F925F926F927F9297
:100490009F92AF92BF92CF92DF92EF92FF920F9313
:1004A0001F93CF93DF9300D01F92CDB7DEB7D82E26
:1004B0008091610390916203A0916303B091640302
:1004C000892B8A2B8B2BD9F00E94E0010091BB0273
:1004D0001091BC022091BD023091BE02601B710BD5
:1004E000820B930B009161031091620320916303CF
:1004F000309164036017710782079307C8F20E9466
:10050000E0016093BB027093BC028093BD029093A4
:10051000BE02E0916903F0916A03309759F040916F
:1005200065035091660360916703709168038D2D98
:100530000995D82EE090BF02F090C0024D2C512CAE
:10054000712C612CE114F10409F459C0D7011C96F7
:10055000CC901C9780915F03909160038436910545
:1005600010F41C961C92D701ED91FC91A280B380EF
:1005700019821A821B82DD2079F1F701369610E08C
:1005800000E02191222319F19280992001F130E0BD
:1005900050E040E02F5F3F4F4F4F5F4FC301B2012C
:1005A0000E9423109B01AC01892D90E0B0E0A0E0F7
:1005B000BC01CD016F5F7F4F8F4F9F4F0E94231073
:1005C000A1E0B0E0AC0FBD1FA00FB11F8C930F5F77
:1005D0001F4F03301105A9F609811A812B81F701FC
:1005E0004585568562817381C701F5010995D7015B
:1005F0001C96CC921C971496ED90FC90A3CF809102
:10060000B9029091BA028C010F5F1F4F1093BA028A
:100610000093B9024997B4F10E943802C090B50224
:10062000D090B602E090B702F090B8029B01AC0106
:100630002C193D094E095F0921F421E030E040E02A
:1006400050E088EE93E0089FB001099F700D189F5D
:10065000700D1124072E000C880B990B0E94B40D0D
:100660003093600320935F031092BA021092B90294
:100670000E9438026093B5027093B6028093B7026D
:100680009093B8020F900F900F90DF91CF911F9130
:100690000F91FF90EF90DF90CF90BF90AF909F9021
:1006A0007F906F905F904F9008952F923F924F925E
:1006B0005F926F927F928F929F92AF92BF92CF92F2
:1006C000DF92EF92FF920F931F93CF93DF93CDB7FB
:1006D000DEB729970FB6F894DEBF0FBECDBF89876E
:1006E00049835A836B837C830091BF021091C002BF
:1006F000BDE78B2E912CA12CB12C0115110509F40D
:100700006BC0D801ED91FC910084F185E02DC8010A
:1007100009951C01D8011296ED91FC91C12CD12CA8
:100720007601412C512C320120E030E0A9010097E4
:1007300091F06081260F311D411D511D6181460ED2
:10074000511C611C711C6281C60ED11CE11CF11C84
:1007500001973396ECCFA0E5B0E00E94A10D6D8328
:100760007E838F839887A7E3B0E0A30192010E9464
:10077000A10D2B013C01ABE4B0E0A70196010E9462
:10078000A10D2D813E814F815885C32ED42EE52E9B
:10079000FF2445E0429D9001439D300D1124C20E7F
:1007A000D31EE11CF11C8C0C9D1CAE1CBF1C452CE7
:1007B000562C672C7724840C951CA61CB71C472F3D
:1007C000582F692F7727840E951EA61EB71ED801B5
:1007D00014960D911C9191CFB985CB2ED12CF12C73
:1007E000E12CA7019601C501B4010E942310872EB8
:1007F000982EA92EBB2429813A814B815C818216D7
:100800009306A406B50668F0A701960169817A816E
:100810008B819C810E942310A50194010E94B40D3C
:100820002987898529960FB6F894DEBF0FBECDBF04
:10083000DF91CF911F910F91FF90EF90DF90CF90BC
:10084000BF90AF909F908F907F906F905F904F90F0
:100850003F902F900895FC01A281B3819C918681E5
:100860002681982381E0921380E00895FC0186811F
:100870000280F381E02D9081809589238083089503
:10088000FC0196810280F381E02D8081892B808399
:1008900008950F931F93CF93DF9320913F012F5F14
:1008A000322F377030933F0120FF2BC020E831FDFD
:1008B0002064347009F02062205FFC01EC01239673
:1008C00000E011E06485662329F070E0C8010E9411
:1008D00033106F5F6187322F369F030E30E0311D7A
:1008E0001124311110C01682662311F06150618706
:1008F0003196EC17FD0731F7DF91CF911F910F91E2
:10090000089520E0D4CF31503683EECF4F925F92DE
:100910007F928F929F92AF92BF92CF92DF92EF928F
:10092000FF920F931F93CF93DF932C01EB010E9453
:10093000E001F20127853089621B730B6A30710573
:10094000B0F3F8948A819B81181619060CF0CDC17A
:10095000E881F9816BB1862E689486F83BB13F7BC4
:100960003BB9DA848F812D2D281B822F2F834F8551
:10097000042E000C550BAA81BB817D85FC84EE847E
:100980007F5FF394E3949E819884B984AB84118152
:10099000C12C6C2D0C2D2C2D218111278894211117
:1009A000280F08F42FEF8195889470FD120F17958A
:1009B000889471FD120F1795889472FD120F179588
:1009C000889473FD120F1795889474FD120F179574
:1009D000889475FD120F1795889476FD120F179560
:1009E000889477FD120F17958894622F7111612FEB
:1009F0008D0D162F002C8BB800C017FF3BB920813E
:100A00006627889400C000C0002C3BB92111290F33
:100A100000C0002C8BB800C016FF3BB908F42FEFC4
:100A20009195889400C000C0002C3BB9F0FC620F87
:100A300000C0002C8BB800C015FF3BB967958894A7
:100A4000F1FC620F00C000C0002C3BB96795889490
:100A500000C0002C8BB800C014FF3BB9F2FC620F41
:100A60006795889400C000C0002C3BB9F3FC620F6E
:100A700000C0002C8BB800C013FF3BB96795889469
:100A8000F4FC620F00C000C0002C3BB9679588944D
:100A900000C0002C8BB800C012FF3BB9F5FC620F00
:100AA0006795889400C000C0002C3BB9F6FC620F2B
:100AB00000C0002C8BB800C011FF3BB9679588942B
:100AC000F7FC620F00C000C0002C3BB9679588940A
:100AD00000C0002C8BB800C010FF3BB9122FF110E2
:100AE000162F9B0D00C000C0002C3BB900C000C0F9
:100AF000002C8BB800C017FF3BB922816627889471
:100B000000C000C0002C3BB92111290D00C0002CF1
:100B10008BB800C016FF3BB908F42FEFE40FF51FA8
:100B200000C000C0002C3BB9E0FC620F00C0002CEC
:100B30008BB800C015FF3BB967958894E1FC620F44
:100B400000C000C0002C3BB96795889400C0002C01
:100B50008BB800C014FF3BB9E2FC620F6795889424
:100B600000C000C0002C3BB9E3FC620F00C0002CA9
:100B70008BB800C013FF3BB967958894E4FC620F03
:100B800000C000C0002C3BB96795889400C0002CC1
:100B90008BB800C012FF3BB9E5FC620F67958894E3
:100BA00000C000C0002C3BB9E6FC620F00C0002C66
:100BB0008BB800C011FF3BB967958894E7FC620FC2
:100BC00000C000C0002C3BB96795889400C0002C81
:100BD0008BB800C010FF3BB9122FE110162F919473
:100BE00000C000C0002C3BB99A0C00C000C08BB8FC
:100BF00000C017FF3BB921816627889400C000C060
:100C0000002C3BB92111280F00C0002C8BB800C06C
:100C100016FF3BB908F42FEF8195889400C000C0FF
:100C2000002C3BB970FD620F00C0002C8BB800C0D7
:100C300015FF3BB96795889471FD620F00C000C035
:100C4000002C3BB96795889400C0002C8BB800C07D
:100C500014FF3BB972FD620F6795889400C000C015
:100C6000002C3BB973FD620F00C0002C8BB800C094
:100C700013FF3BB96795889474FD620F00C000C0F4
:100C8000002C3BB96795889400C0002C8BB800C03D
:100C900012FF3BB975FD620F6795889400C000C0D4
:100CA000002C3BB976FD620F00C0002C8BB800C051
:100CB00011FF3BB96795889477FD620F00C000C0B3
:100CC000002C3BB96795889400C0002C8BB800C0FD
:100CD00010FF3BB9122F7111162F8D0D00C000C0EF
:100CE000002C3BB9119709F086CE4A815B8120EE3A
:100CF00031E0DA010E944710DC01CB01F4E0B69547
:100D0000A79597958795FA95D1F730E020E0B9013E
:100D1000EAE94E9F040E611D5E9F600D711D112456
:100D2000650F711D860F971FA11DB11D893E43E000
:100D30009407A105B10508F434C0885E9340A10969
:100D4000B10942E0B695A795979587954A95D1F751
:100D500047E0849F080E211D949F200D311D112412
:100D6000290F311D60913E0170E0860F971F820FA1
:100D7000931F409141015091420160914301709154
:100D80004401292F3327420F531F611D711D4093CA
:100D90004101509342016093430170934401809359
:100DA0003E0178940E94E001F201708B6787DF9129
:100DB000CF911F910F91FF90EF90DF90CF90BF9058
:100DC000AF909F908F907F905F904F90089581E0BB
:100DD00090E00895569A08956F927F928F92CF92E5
:100DE000DF92EF92FF920F931F93CF93DF93CDB7D4
:100DF000DEB762970FB6F894DEBF0FBECDBF6C01B1
:100E00007A013801822EDC011C962C91CA0157FF11
:100E100004C088279927841B950B7A8369839C8358
:100E20008B839E838D836D867E868F86213049F5E8
:100E3000CE0101960E94490483E0888B1A8A198AA0
:100E4000F7FE02C08DEF888BD601ED91FC910684F0
:100E5000F785E02DBE016F5F7F4FC6010995629651
:100E60000FB6F894DEBF0FBECDBFDF91CF911F91BB
:100E70000F91FF90EF90DF90CF908F907F906F90C9
:100E800008951C861B861A86198618861F82D4CF61
:100E9000EF92FF920F931F93CF93DF93CDB7DEB7FF
:100EA00062970FB6F894DEBF0FBECDBF7C01DC01A8
:100EB0001C968C917A8369835C834B835E834D831C
:100EC0000D871E872F878130F9F4CE0101960E948D
:100ED0004904188A1A8A198AD701ED91FC9106846F
:100EE000F785E02DBE016F5F7F4FC70109956296C0
:100EF0000FB6F894DEBF0FBECDBFDF91CF911F912B
:100F00000F91FF90EF9008951C861B861A86198614
:100F100018861F82DECF90E080E00895FC01858571
:100F2000968508950F931F93CF93DF9300D01F9260
:100F3000CDB7DEB7AB0119821A821B82DC01ED91BD
:100F4000FC910190F081E02D00E010E020E0BE0176
:100F50006F5F7F4F09950F900F900F90DF91CF91AA
:100F60001F910F910895FC0188E091E091838083A7
:100F7000138212828FEF868387838087818782879F
:100F8000838781E084871686158615821482809176
:100F9000BF029091C002892B21F4F093C002E0932C
:100FA000BF02A0913C01B0913D01109721F0159630
:100FB000FC93EE931497F0933D01E0933C01089568
:100FC0000E9468101F920F920FB60F9211242F9358
:100FD0003F934F935F936F937F938F939F93AF93C1
:100FE000BF93EF93FF9381EC92E00E945101FF9138
:100FF000EF91BF91AF919F918F917F916F915F9191
:101000004F913F912F910F900FBE0F901F90189509
:101010001F920F920FB60F9211242F938F939F93CD
:10102000EF93FF93E091D102F091D2028081E091A1
:10103000D702F091D80282FD1BC090818091DA0224
:101040008F5F8F732091DB02821741F0E091DA020B
:10105000F0E0EF53FD4F958F8093DA02FF91EF910F
:101060009F918F912F910F900FBE0F901F90189509
:101070008081F4CF1F920F920FB60F9211242F93FD
:101080003F938F939F93AF93BF9380914101909132
:101090004201A0914301B09144013091400123E00D
:1010A000230F2D3758F50196A11DB11D2093400146
:1010B0008093410190934201A0934301B093440176
:1010C0008091450190914601A0914701B09148015E
:1010D0000196A11DB11D8093450190934601A093F7
:1010E0004701B0934801BF91AF919F918F913F917C
:1010F0002F910F900FBE0F901F90189526E8230F89
:101100000296A11DB11DD2CFE1ECF2E01382128252
:1011100088EE93E0A0E0B0E084839583A683B78354
:101120008EE291E09183808385EC90E095878487BF
:1011300084EC90E09787868780EC90E0918B808BA1
:1011400081EC90E0938B828B82EC90E0958B848B8A
:1011500086EC90E0978B868B118E128E138E148EF8
:10116000EEE5F3E08FEF80831282118214861386FE
:101170008FEF9FEFDC0187839087A187B287089567
:10118000CF93DF9300D000D000D0CDB7DEB77894F6
:1011900084B5826084BD84B5816084BD85B582607C
:1011A00085BD85B5816085BD80916E00816080932D
:1011B0006E00109281008091810082608093810096
:1011C00080918100816080938100809180008160A6
:1011D000809380008091B10084608093B100809101
:1011E000B00081608093B00080917A008460809329
:1011F0007A0080917A00826080937A0080917A00F0
:10120000816080937A0080917A00806880937A0070
:101210001092C10080915A01811111C089E491E0BE
:101220000E94B30710925901109258018AE191E08F
:1012300090934A018093490181E080935A0189E4A7
:1012400091E00E94EA0681EB91E090934C0180933B
:101250004B0182E390E09093570180935601809177
:10126000610390916203A0916303B0916403843C95
:1012700029E09207A105B10520F484EC99E0A0E0F3
:10128000B0E08093610390936203A0936303B093F3
:1012900064038FEF80934F0180EB8093500180EFC8
:1012A0008093510185E593E090936A0380936903ED
:1012B0008CE49DE1A0E0B0E0809365039093660329
:1012C000A0936703B09368030E94890060ED77E004
:1012D00080E090E00E94050280917301811111C0AD
:1012E00082E691E00E94B3071092720110927101A0
:1012F0008AE191E0909363018093620181E08093A1
:10130000730182E691E00E94EA0681EB91E09093FE
:1013100065018093640182E390E090937001809373
:101320006F018091610390916203A0916303B0917A
:101330006403843C39E09307A105B10520F484ECF3
:1013400099E0A0E0B0E08093610390936203A093E2
:101350006303B09364038FEF80935E03E091D10247
:10136000F091D20282E08083E091CD02F091CE0232
:101370001082E091CF02F091D00280E18083109240
:10138000D902E091D502F091D60286E08083E09107
:10139000D302F091D402808180618083E091D302F6
:1013A000F091D402808188608083E091D302F09133
:1013B000D402808180688083E091D302F091D402CE
:1013C00080818F7D808383E592E09A83898303E81F
:1013D000202E02E0302E87E4C82E82E0D82E0BE6C5
:1013E00012E09BE9E92E92E0F92E1C821B82412C2F
:1013F000512C20E8622E2FE3722E38E0832E3EEB34
:10140000932E3DE8A32E30E4B32E0E943802D7017C
:101410006D937D938D939D937D01F801419251923F
:10142000619271928F01D6011D921D926D01F101A1
:1014300081929192A192B1921F012B813C81B901BD
:10144000330F880B990B0E94010F20E030E040E140
:1014500052E40E94570E9B01AC0166E676E686E6F2
:101460009FE30E94E50DA981BA816D937D938D93D1
:101470009D93BA83A983EB81FC813196FC83EB8336
:10148000369719F60E9438026093AD017093AE0151
:101490008093AF019093B0018091B3029091B40218
:1014A00081309105D9F1A0F0029709F41AC161E0E9
:1014B00070E080E090E00E940502E0E0F0E0EF2BB9
:1014C00059F30E943D01882339F30E940000E4CFC4
:1014D0000E9438020091AD011091AE012091AF0140
:1014E0003091B001601B710B820B930B643F714014
:1014F00081059105E0F20E94890021E030E03093FF
:10150000B4022093B3020E9438026093AD0170933D
:10151000AE018093AF019093B001C9CF1BE7E12EDC
:1015200011E0F12E87010E942A0D2CE030E040E00E
:1015300050E00E94820DD8012C91261717060CF05E
:10154000B4C01C920F5F1F4F2DEA31E02017310706
:1015500051F7EBEAF1E08081229130E0820F932F86
:10156000911D820F931F63E070E00E94331062832D
:10157000EE16FF0681F70E942A0D2FEF30E040E0C3
:1015800050E00E94820D6233710581059105F4F4EB
:101590000E942A0D27E030E040E050E00E94820DDA
:1015A000DB01A558BE4FBA83A983DC900E942A0DA7
:1015B0002FE530E040E050E00E94820D60567F4F02
:1015C0008F4F9F4F6D0DE981FA81608321EB31E0F0
:1015D0003A832983D7016D917D0170E090E080E02E
:1015E0000E94010F20E030E04FE753E40E94570EC5
:1015F00020E030E04FE353E40E94B60F4B015C0162
:1016000020E030E0A9010E94B10F20E030E040E08E
:101610005FE387FD4EC0C501B4010E94E60D0E9444
:10162000C90E862F880F880F613808F447C02FEF46
:10163000E981FA81208321838283E981FA813396CB
:10164000FA83E9830E151F0529F680915E030E9437
:1016500044020E9438020091AD011091AE01209128
:10166000AF013091B001601B710B820B930B683896
:1016700073418105910590F00E94890022E030E0DD
:101680003093B4022093B3020E9438026093AD01FC
:101690007093AE018093AF019093B0016AE070E067
:1016A00080E090E00E94050202CF261BF801208313
:1016B00049CFC501B4010E94E50DB1CF613450F0AE
:1016C000EFEFA981BA81EC9311968C931197129642
:1016D0001C92B3CFA981BA818C9311961C92119759
:1016E000F6CF0BE612E087E492E09C838B83A3E8BD
:1016F000B2E0BE83AD83EBE9F2E0FA83E983312CFB
:10170000212C0E943802A981BA81CD90DD90ED9004
:10171000FD90BA83A9836C197D098E099F090E94E7
:10172000FF0E4B015C0120E030E04AE754E40E94E8
:10173000570EED81FE81C080D180E280F3809B0155
:10174000AC010E94B60F23EC35EF4CE950EC0E943F
:10175000B60F2B013C01A7019601C501B4010E94FF
:10176000B60F20E030E04AE754E40E94570E9B0198
:10177000AC01C301B2010E94E60D4B015C0120E007
:1017800030E0A9010E94520E87FD5AC0D8018D9207
:101790009D92AD92BC92139720E030E044E452E475
:1017A000D8016D917D918D919C910E94B60F6B0136
:1017B0007C0120E030E0A9010E94B10F20E030E080
:1017C00040E05FE387FD73C0C701B6010E94E60DEC
:1017D0000E94C90EEB81FC8161937193FC83EB83C2
:1017E0002D813E812C5F3F4F3E832D830C5F1F4F29
:1017F00034E0230E311C88E12816310409F081CF32
:10180000E7E4F2E070E0198215E500E0BAEAFB2EA9
:10181000419151912981219F020E20E0211D112427
:10182000822F272F2074972F907277FDA7C0211148
:1018300091C0911141C0282F2095682F822F40C060
:10184000F8011082118212821382F101ED5AFD4FCC
:101850002081318142815381C701B6010E94B60FB8
:101860006B017C01AD81BE81CD92DD92ED92FC9247
:1018700013970E943802E981FA813497608371835B
:10188000828393832AE037ED43E25CE3C701B6012C
:101890000E94520E87FF80CF88E09EEBADE8B0E457
:1018A000ED81FE8180839183A283B38375CFC701CD
:1018B000B6010E94E50D8CCF65E5680F90E08BEADC
:1018C0009A01220F331F240F351FD901AF54BE4F89
:1018D0008C9311966C93119712969C938981805CDE
:1018E0008983785D703F09F093CF80915E030E94F9
:1018F0004402E7E4F2E021913191C901880F991F78
:10190000820F931FDC01AF54BE4F1C9211961C92A4
:10191000119712961C9292E0E335F90761F70E9445
:1019200038020091AD011091AE012091AF013091CC
:10193000B001601B710B820B930B683873418105FA
:10194000910508F4B4CD0E9489001092B40210925F
:10195000B302D9CD91110DC029813F2D239F020ED5
:1019600020E0211D1124ABEAA21B2A2F6AEA680F8E
:1019700065CF682F6095982F80E0A2CF211112C00B
:1019800091110CC029813F2D239F020E20E0211DC3
:1019900011246BEA621B95E5920FEECF982F90957C
:1019A00060E08ECF911106C025E5280F9BEA981BB9
:1019B000822FF6CF2AEA280F912FF9CF8F929F928C
:1019C000AF92BF92CF92DF92EF92FF92CF93DF93CD
:1019D000EC01688179818A819B816115710581059E
:1019E000910521F464E279ED8BE597E02DE133EF89
:1019F00041E050E00E94820D49015A019B01AC0177
:101A0000A7EAB1E40E94A10D6B017C01ACEEB4EF3A
:101A1000A50194010E94AF0DC60ED71EE81EF91E47
:101A2000F7FE06C081E0C81AD108E10880E8F80A8C
:101A3000C882D982EA82FB82C701B6019F77DF9113
:101A4000CF91FF90EF90DF90CF90BF90AF909F909D
:101A50008F9008958F929F92AF92BF92CF92DF9214
:101A6000EF92FF926091000170910101809102015B
:101A700090910301611571058105910521F464E2DE
:101A800079ED8BE597E02DE133EF41E050E00E94E6
:101A9000820D49015A019B01AC01A7EAB1E40E9401
:101AA000A10D6B017C01ACEEB4EFA50194010E9485
:101AB000AF0DC60ED71EE81EF91EF7FE06C081E068
:101AC000C81AD108E10880E8F80AC0920001D09253
:101AD0000101E0920201F0920301C701B6019F7774
:101AE000FF90EF90DF90CF90BF90AF909F908F903E
:101AF0000895609300017093010180930201909317
:101B000003010895052E97FB1EF400940E94990D81
:101B100057FD07D00E94B40D07FC03D04EF40C947F
:101B2000990D50954095309521953F4F4F4F5F4F00
:101B3000089590958095709561957F4F8F4F9F4F39
:101B400008950E94D60DA59F900DB49F900DA49F5F
:101B5000800D911D11240895B7FF0C94A10D0E94D2
:101B6000A10D821B930B0895A1E21A2EAA1BBB1B89
:101B7000FD010DC0AA1FBB1FEE1FFF1FA217B30759
:101B8000E407F50720F0A21BB30BE40BF50B661F6F
:101B9000771F881F991F1A9469F760957095809533
:101BA00090959B01AC01BD01CF010895A29FB001AA
:101BB000B39FC001A39F700D811D1124911DB29F81
:101BC000700D811D1124911D08955058BB27AA271F
:101BD0000E94FD0D0C94770F0E94690F38F00E944F
:101BE000700F20F039F49F3F19F426F40C94660F1F
:101BF0000EF4E095E7FB0C94600FE92F0E94880F2C
:101C000058F3BA17620773078407950720F079F431
:101C1000A6F50C94AA0F0EF4E0950B2EBA2FA02D6A
:101C20000B01B90190010C01CA01A0011124FF2789
:101C3000591B99F0593F50F4503E68F11A16F04084
:101C4000A22F232F342F4427585FF3CF4695379583
:101C50002795A795F0405395C9F77EF41F16BA0B48
:101C6000620B730B840BBAF09150A1F0FF0FBB1FF6
:101C7000661F771F881FC2F70EC0BA0F621F731F3F
:101C8000841F48F4879577956795B795F7959E3F9C
:101C900008F0B0CF9395880F08F09927EE0F97952D
:101CA000879508950E943C0F08F481E008950E94F2
:101CB0006B0E0C94770F0E94700F58F00E94690F02
:101CC00040F029F45F3F29F00C94600F51110C94FF
:101CD000AB0F0C94660F0E94880F68F39923B1F341
:101CE000552391F3951B550BBB27AA276217730742
:101CF000840738F09F5F5F4F220F331F441FAA1FD6
:101D0000A9F335D00E2E3AF0E0E832D09150504091
:101D1000E695001CCAF72BD0FE2F29D0660F771F3F
:101D2000881FBB1F261737074807AB07B0E809F025
:101D3000BB0B802DBF01FF2793585F4F3AF09E3FAA
:101D4000510578F00C94600F0C94AB0F5F3FE4F3F7
:101D5000983ED4F3869577956795B795F7959F5FED
:101D6000C9F7880F911D9695879597F90895E1E039
:101D7000660F771F881FBB1F621773078407BA0798
:101D800020F0621B730B840BBA0BEE1F88F7E095F3
:101D900008950E94D00E6894B1110C94AB0F089571
:101DA0000E94900F88F09F5798F0B92F9927B7514C
:101DB000B0F0E1F0660F771F881F991F1AF0BA95EF
:101DC000C9F714C0B13091F00E94AA0FB1E0089594
:101DD0000C94AA0F672F782F8827B85F39F0B93F86
:101DE000CCF3869577956795B395D9F73EF49095A2
:101DF0008095709561957F4F8F4F9F4F0895E89420
:101E000009C097FB3EF490958095709561957F4F42
:101E10008F4F9F4F9923A9F0F92F96E9BB279395F0
:101E2000F695879577956795B795F111F8CFFAF400
:101E3000BB0F11F460FF1BC06F5F7F4F8F4F9F4F31
:101E400016C0882311F096E911C0772321F09EE88F
:101E5000872F762F05C0662371F096E8862F70E0F5
:101E600060E02AF09A95660F771F881FDAF7880FCF
:101E70009695879597F90895990F0008550FAA0B25
:101E8000E0E8FEEF16161706E807F907C0F012168D
:101E90001306E407F50798F0621B730B840B950B90
:101EA00039F40A2661F0232B242B252B21F40895E5
:101EB0000A2609F4A140A6958FEF811D811D089582
:101EC00097F99F6780E870E060E008959FEF80ECED
:101ED000089500240A941616170618060906089590
:101EE00000240A9412161306140605060895092EF6
:101EF0000394000C11F4882352F0BB0F40F4BF2B65
:101F000011F460FF04C06F5F7F4F8F4F9F4F0895A4
:101F100057FD9058440F551F59F05F3F71F047959A
:101F2000880F97FB991F61F09F3F79F0879508957F
:101F3000121613061406551FF2CF4695F1DF08C09E
:101F4000161617061806991FF1CF869571056105BB
:101F500008940895E894BB2766277727CB0197F963
:101F600008950E943C0F08F48FEF08950E94C90F56
:101F70000C94770F0E94690F38F00E94700F20F0C8
:101F8000952311F00C94600F0C94660F11240C949F
:101F9000AB0F0E94880F70F3959FC1F3950F50E02F
:101FA000551F629FF001729FBB27F00DB11D639F0B
:101FB000AA27F00DB11DAA1F649F6627B00DA11DB1
:101FC000661F829F2227B00DA11D621F739FB00D57
:101FD000A11D621F839FA00D611D221F749F3327C7
:101FE000A00D611D231F849F600D211D822F762F60
:101FF0006A2F11249F5750409AF0F1F088234AF03D
:10200000EE0FFF1FBB1F661F771F881F91505040A8
:10201000A9F79E3F510580F00C94600F0C94AB0F14
:102020005F3FE4F3983ED4F3869577956795B7952F
:10203000F795E7959F5FC1F7FE2B880F911D969549
:10204000879597F90895DB018F939F930E94A10DC7
:10205000BF91AF91A29F800D911DA39F900DB29F44
:10206000900D1124089597FB072E16F4009407D0C5
:1020700077FD09D00E944E1007FC05D03EF49095E4
:1020800081959F4F0895709561957F4F08950E94A7
:10209000D60DB7FF0895821B930B0895AA1BBB1B97
:1020A00051E107C0AA1FBB1FA617B70710F0A61B58
:1020B000B70B881F991F5A95A9F780959095BC0179
:1020C000CD010895EE0FFF1F0590F491E02D0994C6
:1020D00081E090E0F8940C946D10F894FFCF01002B
:1020E000000000000000E007E007E00792078E070D
:1020F000E7068B07000000004807EC06EA06920797
:102100008E07E706D0008604000000007301D300AC
:0A2110000001C00131010F0123019D
:107E0000112484B714BE81FFF0D085E080938100F7
:107E100082E08093C00088E18093C10086E0809377
:107E2000C20080E18093C4008EE0C9D0259A86E02C
:107E300020E33CEF91E0309385002093840096BBD3
:107E4000B09BFECF1D9AA8958150A9F7CC24DD24C4
:107E500088248394B5E0AB2EA1E19A2EF3E0BF2EE7
:107E6000A2D0813461F49FD0082FAFD0023811F036
:107E7000013811F484E001C083E08DD089C08234E0
:107E800011F484E103C0853419F485E0A6D080C0E4
:107E9000853579F488D0E82EFF2485D0082F10E0AE
:107EA000102F00270E291F29000F111F8ED06801E7
:107EB0006FC0863521F484E090D080E0DECF843638
:107EC00009F040C070D06FD0082F6DD080E0C81688
:107ED00080E7D80618F4F601B7BEE895C0E0D1E017
:107EE00062D089930C17E1F7F0E0CF16F0E7DF06D8
:107EF00018F0F601B7BEE89568D007B600FCFDCFD4
:107F0000A601A0E0B1E02C9130E011968C91119780
:107F100090E0982F8827822B932B1296FA010C0160
:107F200087BEE89511244E5F5F4FF1E0A038BF0790
:107F300051F7F601A7BEE89507B600FCFDCF97BE46
:107F4000E89526C08437B1F42ED02DD0F82E2BD052
:107F50003CD0F601EF2C8F010F5F1F4F84911BD097
:107F6000EA94F801C1F70894C11CD11CFA94CF0C13
:107F7000D11C0EC0853739F428D08EE10CD085E9AC
:107F80000AD08FE07ACF813511F488E018D01DD067
:107F900080E101D065CF982F8091C00085FFFCCF94
:107FA0009093C60008958091C00087FFFCCF809118
:107FB000C00084FD01C0A8958091C6000895E0E648
:107FC000F0E098E1908380830895EDDF803219F02E
:107FD00088E0F5DFFFCF84E1DECF1F93182FE3DFCA
:107FE0001150E9F7F2DF1F91089580E0E8DFEE27F6
:047FF000FF270994CA
:027FFE00040479
:00000001FF
